S01500005445535420415454494E5938342E737265636A
S113000010C017C016C015C014C013C012C011C050
S113001010C00FC00EC00DC00CC00BC00AC009C078
S113002008C011241FBECFE5D2E0DEBFCDBF02D091
S113003056C0E6CF8FEF8ABB1BBA82E087BB90E045
S113004080E0C09906C0C099FECF853009F444C051
S11300508F5FC1991CC001C080E0C199FECF94306C
S113006049F09F5F913051F028F0923051F0933075
S113007059F00DC09BB39BBB90E009C0D89AD998A6
S113008006C0D99AD89803C02BB323602BBB823007
S113009099F028F4882341F0813051F0D2CF833095
S11300A089F08430A9F0CDCF8BB38BBB80E0C9CF6E
S11300B0DB9A2BB32BBBC5CF2BB328612BBB2BB344
S11300C02BBBBFCF2BB328622BBB2BB32BBBB9CF1E
S11300D0DD9A2BB32BBBB5CFC19BBECFE5CFF89434
S10500E0FFCF4C
S9030000FC
